{"contracts/ETHPool.sol":{"ETHPool":{"abi":[{"inputs":[],"stateMutability":"nonpayable","type":"constructor"},{"anonymous":false,"inputs":[{"indexed":true,"internalType":"address","name":"user","type":"address"},{"indexed":false,"internalType":"uint256","name":"amount","type":"uint256"}],"name":"Deposited","type":"event"},{"anonymous":false,"inputs":[{"indexed":true,"internalType":"address","name":"previousOwner","type":"address"},{"indexed":true,"internalType":"address","name":"newOwner","type":"address"}],"name":"OwnershipTransferred","type":"event"},{"anonymous":false,"inputs":[{"indexed":false,"internalType":"uint256","name":"amount","type":"uint256"}],"name":"RewardDeposit","type":"event"},{"anonymous":false,"inputs":[{"indexed":true,"internalType":"address","name":"user","type":"address"},{"indexed":false,"internalType":"uint256","name":"amount","type":"uint256"}],"name":"Withdrawn","type":"event"},{"stateMutability":"payable","type":"fallback"},{"inputs":[],"name":"deposit","outputs":[],"stateMutability":"payable","type":"function"},{"inputs":[],"name":"depositReward","outputs":[],"stateMutability":"payable","type":"function"},{"inputs":[{"internalType":"address","name":"","type":"address"}],"name":"deposits","outputs":[{"internalType":"uint256","name":"","type":"uint256"}],"stateMutability":"view","type":"function"},{"inputs":[],"name":"owner","outputs":[{"internalType":"address","name":"","type":"address"}],"stateMutability":"view","type":"function"},{"inputs":[],"name":"renounceOwnership","outputs":[],"stateMutability":"nonpayable","type":"function"},{"inputs":[],"name":"rewardPerDeposit","outputs":[{"internalType":"uint256","name":"","type":"uint256"}],"stateMutability":"view","type":"function"},{"inputs":[{"internalType":"address","name":"","type":"address"}],"name":"rewards","outputs":[{"internalType":"uint256","name":"","type":"uint256"}],"stateMutability":"view","type":"function"},{"inputs":[],"name":"totalDeposited","outputs":[{"internalType":"uint256","name":"","type":"uint256"}],"stateMutability":"view","type":"function"},{"inputs":[],"name":"totalDepositedRewards","outputs":[{"internalType":"uint256","name":"","type":"uint256"}],"stateMutability":"view","type":"function"},{"inputs":[{"internalType":"address","name":"newOwner","type":"address"}],"name":"transferOwnership","outputs":[],"stateMutability":"nonpayable","type":"function"},{"inputs":[],"name":"withdraw","outputs":[{"internalType":"uint256","name":"","type":"uint256"}],"stateMutability":"nonpayable","type":"function"},{"stateMutability":"payable","type":"receive"}],"evm":{"bytecode":{"linkReferences":{},"object":"608060405234801561001057600080fd5b50600160005561001f33610033565b600060038190556002819055600455610085565b600180546001600160a01b038381166001600160a01b0319831681179093556040519116919082907f8be0079c531659141344cd1fd0a4f28419497f9722a3daafe3b4186f6b6457e090600090a35050565b61082b806100946000396000f3fe60806040526004361061009a5760003560e01c80638da5cb5b116100615780638da5cb5b1461012b578063d0e30db014610153578063ea4e2fd21461015b578063f2fde38b14610171578063fc7e286d14610191578063ff50abdc146101be57005b80630700037d146100a35780633ccfd60b146100e35780635ec2dc8d146100f85780636d27f31714610100578063715018a61461011657005b366100a157005b005b3480156100af57600080fd5b506100d06100be366004610746565b60066020526000908152604090205481565b6040519081526020015b60405180910390f35b3480156100ef57600080fd5b506100d06101d4565b6100a16103e3565b34801561010c57600080fd5b506100d060035481565b34801561012257600080fd5b506100a16104b4565b34801561013757600080fd5b506001546040516001600160a01b0390911681526020016100da565b6100a16104c8565b34801561016757600080fd5b506100d060045481565b34801561017d57600080fd5b506100a161018c366004610746565b6105ea565b34801561019d57600080fd5b506100d06101ac366004610746565b60056020526000908152604090205481565b3480156101ca57600080fd5b506100d060025481565b60006002600054141561022e5760405162461bcd60e51b815260206004820152601f60248201527f5265656e7472616e637947756172643a207265656e7472616e742063616c6c0060448201526064015b60405180910390fd5b60026000908155338152600560205260409020546102835760405162461bcd60e51b81526020600482015260126024820152714e6f7420656e6f7567682062616c616e636560701b6044820152606401610225565b3360009081526005602090815260408083205460069092528220546004549192916102c6916064916102c0916102b99190610663565b8590610676565b90610682565b6002549091506102d69083610663565b60025560006102e5838361068e565b604051909150600090339083908381818185875af1925050503d806000811461032a576040519150601f19603f3d011682016040523d82523d6000602084013e61032f565b606091505b5050336000908152600560205260408120556003549091506103519084610663565b600355806103a15760405162461bcd60e51b815260206004820152601860248201527f4661696c656420746f2073656e64207468652066756e647300000000000000006044820152606401610225565b60405182815233907f7084f5476618d8e60b11ef0d7d3f06914655adb8793e28ff7f018d4c76d505d59060200160405180910390a25092505050600160005590565b6103eb61069a565b600034116104305760405162461bcd60e51b81526020600482015260126024820152710616d6f756e74206d757374206265203e20360741b6044820152606401610225565b60035461043d903461068e565b6003556002541561047a5761047261045e6002543460646102c09190610785565b60045461046c906064610785565b9061068e565b60045561047f565b600080fd5b6040513481527f413750d12f7d0aae43d7950b99c1034ded0220bbd00b4dd5582085c4646143649060200160405180910390a1565b6104bc61069a565b6104c660006106f4565b565b6002600054141561051b5760405162461bcd60e51b815260206004820152601f60248201527f5265656e7472616e637947756172643a207265656e7472616e742063616c6c006044820152606401610225565b6002600055346105625760405162461bcd60e51b81526020600482015260126024820152710616d6f756e74206d757374206265203e20360741b6044820152606401610225565b3360009081526005602052604090205461057c903461068e565b336000908152600560209081526040808320939093556004546006909152919020556002546105ab903461068e565b60025560405134815233907f2da466a7b24304f47e87fa2e1e5a81b9831ce54fec19055ce277ca2f39ba42c49060200160405180910390a26001600055565b6105f261069a565b6001600160a01b0381166106575760405162461bcd60e51b815260206004820152602660248201527f4f776e61626c653a206e6577206f776e657220697320746865207a65726f206160448201526564647265737360d01b6064820152608401610225565b610660816106f4565b50565b600061066f82846107a4565b9392505050565b600061066f8284610785565b600061066f82846107bb565b600061066f82846107dd565b6001546001600160a01b031633146104c65760405162461bcd60e51b815260206004820181905260248201527f4f776e61626c653a2063616c6c6572206973206e6f7420746865206f776e65726044820152606401610225565b600180546001600160a01b038381166001600160a01b0319831681179093556040519116919082907f8be0079c531659141344cd1fd0a4f28419497f9722a3daafe3b4186f6b6457e090600090a35050565b60006020828403121561075857600080fd5b81356001600160a01b038116811461066f57600080fd5b634e487b7160e01b600052601160045260246000fd5b600081600019048311821515161561079f5761079f61076f565b500290565b6000828210156107b6576107b661076f565b500390565b6000826107d857634e487b7160e01b600052601260045260246000fd5b500490565b600082198211156107f0576107f061076f565b50019056fea2646970667358221220ee4dfb1f659843733a1d95a883aca66c12bcc58d66cec50a00f06bf8e8bac29364736f6c63430008090033","opcodes":"PUSH1 0x80 PUSH1 0x40 MSTORE CALLVALUE DUP1 ISZERO PUSH2 0x10 JUMPI PUSH1 0x0 DUP1 REVERT JUMPDEST POP PUSH1 0x1 PUSH1 0x0 SSTORE PUSH2 0x1F CALLER PUSH2 0x33 JUMP JUMPDEST PUSH1 0x0 PUSH1 0x3 DUP2 SWAP1 SSTORE PUSH1 0x2 DUP2 SWAP1 SSTORE PUSH1 0x4 SSTORE PUSH2 0x85 JUMP JUMPDEST PUSH1 0x1 DUP1 SLOAD PUSH1 0x1 PUSH1 0x1 PUSH1 0xA0 SHL SUB DUP4 DUP2 AND PUSH1 0x1 PUSH1 0x1 PUSH1 0xA0 SHL SUB NOT DUP4 AND DUP2 OR SWAP1 SWAP4 SSTORE PUSH1 0x40 MLOAD SWAP2 AND SWAP2 SWAP1 DUP3 SWAP1 PUSH32 0x8BE0079C531659141344CD1FD0A4F28419497F9722A3DAAFE3B4186F6B6457E0 SWAP1 PUSH1 0x0 SWAP1 LOG3 POP POP JUMP JUMPDEST PUSH2 0x82B DUP1 PUSH2 0x94 PUSH1 0x0 CODECOPY PUSH1 0x0 RETURN INVALID PUSH1 0x80 PUSH1 0x40 MSTORE PUSH1 0x4 CALLDATASIZE LT PUSH2 0x9A JUMPI PUSH1 0x0 CALLDATALOAD PUSH1 0xE0 SHR DUP1 PUSH4 0x8DA5CB5B GT PUSH2 0x61 JUMPI DUP1 PUSH4 0x8DA5CB5B EQ PUSH2 0x12B JUMPI DUP1 PUSH4 0xD0E30DB0 EQ PUSH2 0x153 JUMPI DUP1 PUSH4 0xEA4E2FD2 EQ PUSH2 0x15B JUMPI DUP1 PUSH4 0xF2FDE38B EQ PUSH2 0x171 JUMPI DUP1 PUSH4 0xFC7E286D EQ PUSH2 0x191 JUMPI DUP1 PUSH4 0xFF50ABDC EQ PUSH2 0x1BE JUMPI STOP JUMPDEST DUP1 PUSH4 0x700037D EQ PUSH2 0xA3 JUMPI DUP1 PUSH4 0x3CCFD60B EQ PUSH2 0xE3 JUMPI DUP1 PUSH4 0x5EC2DC8D EQ PUSH2 0xF8 JUMPI DUP1 PUSH4 0x6D27F317 EQ PUSH2 0x100 JUMPI DUP1 PUSH4 0x715018A6 EQ PUSH2 0x116 JUMPI STOP JUMPDEST CALLDATASIZE PUSH2 0xA1 JUMPI STOP JUMPDEST STOP JUMPDEST CALLVALUE DUP1 ISZERO PUSH2 0xAF JUMPI PUSH1 0x0 DUP1 REVERT JUMPDEST POP PUSH2 0xD0 PUSH2 0xBE CALLDATASIZE PUSH1 0x4 PUSH2 0x746 JUMP JUMPDEST PUSH1 0x6 PUSH1 0x20 MSTORE PUSH1 0x0 SWAP1 DUP2 MSTORE PUSH1 0x40 SWAP1 KECCAK256 SLOAD DUP2 JUMP JUMPDEST PUSH1 0x40 MLOAD SWAP1 DUP2 MSTORE PUSH1 0x20 ADD JUMPDEST PUSH1 0x40 MLOAD DUP1 SWAP2 SUB SWAP1 RETURN JUMPDEST CALLVALUE DUP1 ISZERO PUSH2 0xEF JUMPI PUSH1 0x0 DUP1 REVERT JUMPDEST POP PUSH2 0xD0 PUSH2 0x1D4 JUMP JUMPDEST PUSH2 0xA1 PUSH2 0x3E3 JUMP JUMPDEST CALLVALUE DUP1 ISZERO PUSH2 0x10C JUMPI PUSH1 0x0 DUP1 REVERT JUMPDEST POP PUSH2 0xD0 PUSH1 0x3 SLOAD DUP2 JUMP JUMPDEST CALLVALUE DUP1 ISZERO PUSH2 0x122 JUMPI PUSH1 0x0 DUP1 REVERT JUMPDEST POP PUSH2 0xA1 PUSH2 0x4B4 JUMP JUMPDEST CALLVALUE DUP1 ISZERO PUSH2 0x137 JUMPI PUSH1 0x0 DUP1 REVERT JUMPDEST POP PUSH1 0x1 SLOAD PUSH1 0x40 MLOAD PUSH1 0x1 PUSH1 0x1 PUSH1 0xA0 SHL SUB SWAP1 SWAP2 AND DUP2 MSTORE PUSH1 0x20 ADD PUSH2 0xDA JUMP JUMPDEST PUSH2 0xA1 PUSH2 0x4C8 JUMP JUMPDEST CALLVALUE DUP1 ISZERO PUSH2 0x167 JUMPI PUSH1 0x0 DUP1 REVERT JUMPDEST POP PUSH2 0xD0 PUSH1 0x4 SLOAD DUP2 JUMP JUMPDEST CALLVALUE DUP1 ISZERO PUSH2 0x17D JUMPI PUSH1 0x0 DUP1 REVERT JUMPDEST POP PUSH2 0xA1 PUSH2 0x18C CALLDATASIZE PUSH1 0x4 PUSH2 0x746 JUMP JUMPDEST PUSH2 0x5EA JUMP JUMPDEST CALLVALUE DUP1 ISZERO PUSH2 0x19D JUMPI PUSH1 0x0 DUP1 REVERT JUMPDEST POP PUSH2 0xD0 PUSH2 0x1AC CALLDATASIZE PUSH1 0x4 PUSH2 0x746 JUMP JUMPDEST PUSH1 0x5 PUSH1 0x20 MSTORE PUSH1 0x0 SWAP1 DUP2 MSTORE PUSH1 0x40 SWAP1 KECCAK256 SLOAD DUP2 JUMP JUMPDEST CALLVALUE DUP1 ISZERO PUSH2 0x1CA JUMPI PUSH1 0x0 DUP1 REVERT JUMPDEST POP PUSH2 0xD0 PUSH1 0x2 SLOAD DUP2 JUMP JUMPDEST PUSH1 0x0 PUSH1 0x2 PUSH1 0x0 SLOAD EQ ISZERO PUSH2 0x22E JUMPI PUSH1 0x40 MLOAD PUSH3 0x461BCD PUSH1 0xE5 SHL DUP2 MSTORE PUSH1 0x20 PUSH1 0x4 DUP3 ADD MSTORE PUSH1 0x1F PUSH1 0x24 DUP3 ADD MSTORE PUSH32 0x5265656E7472616E637947756172643A207265656E7472616E742063616C6C00 PUSH1 0x44 DUP3 ADD MSTORE PUSH1 0x64 ADD JUMPDEST PUSH1 0x40 MLOAD DUP1 SWAP2 SUB SWAP1 REVERT JUMPDEST PUSH1 0x2 PUSH1 0x0 SWAP1 DUP2 SSTORE CALLER DUP2 MSTORE PUSH1 0x5 PUSH1 0x20 MSTORE PUSH1 0x40 SWAP1 KECCAK256 SLOAD PUSH2 0x283 JUMPI PUSH1 0x40 MLOAD PUSH3 0x461BCD PUSH1 0xE5 SHL DUP2 MSTORE PUSH1 0x20 PUSH1 0x4 DUP3 ADD MSTORE PUSH1 0x12 PUSH1 0x24 DUP3 ADD MSTORE PUSH18 0x4E6F7420656E6F7567682062616C616E6365 PUSH1 0x70 SHL PUSH1 0x44 DUP3 ADD MSTORE PUSH1 0x64 ADD PUSH2 0x225 JUMP JUMPDEST CALLER PUSH1 0x0 SWAP1 DUP2 MSTORE PUSH1 0x5 PUSH1 0x20 SWAP1 DUP2 MSTORE PUSH1 0x40 DUP1 DUP4 KECCAK256 SLOAD PUSH1 0x6 SWAP1 SWAP3 MSTORE DUP3 KECCAK256 SLOAD PUSH1 0x4 SLOAD SWAP2 SWAP3 SWAP2 PUSH2 0x2C6 SWAP2 PUSH1 0x64 SWAP2 PUSH2 0x2C0 SWAP2 PUSH2 0x2B9 SWAP2 SWAP1 PUSH2 0x663 JUMP JUMPDEST DUP6 SWAP1 PUSH2 0x676 JUMP JUMPDEST SWAP1 PUSH2 0x682 JUMP JUMPDEST PUSH1 0x2 SLOAD SWAP1 SWAP2 POP PUSH2 0x2D6 SWAP1 DUP4 PUSH2 0x663 JUMP JUMPDEST PUSH1 0x2 SSTORE PUSH1 0x0 PUSH2 0x2E5 DUP4 DUP4 PUSH2 0x68E JUMP JUMPDEST PUSH1 0x40 MLOAD SWAP1 SWAP2 POP PUSH1 0x0 SWAP1 CALLER SWAP1 DUP4 SWAP1 DUP4 DUP2 DUP2 DUP2 DUP6 DUP8 GAS CALL SWAP3 POP POP POP RETURNDATASIZE DUP1 PUSH1 0x0 DUP2 EQ PUSH2 0x32A JUMPI PUSH1 0x40 MLOAD SWAP2 POP PUSH1 0x1F NOT PUSH1 0x3F RETURNDATASIZE ADD AND DUP3 ADD PUSH1 0x40 MSTORE RETURNDATASIZE DUP3 MSTORE RETURNDATASIZE PUSH1 0x0 PUSH1 0x20 DUP5 ADD RETURNDATACOPY PUSH2 0x32F JUMP JUMPDEST PUSH1 0x60 SWAP2 POP JUMPDEST POP POP CALLER PUSH1 0x0 SWAP1 DUP2 MSTORE PUSH1 0x5 PUSH1 0x20 MSTORE PUSH1 0x40 DUP2 KECCAK256 SSTORE PUSH1 0x3 SLOAD SWAP1 SWAP2 POP PUSH2 0x351 SWAP1 DUP5 PUSH2 0x663 JUMP JUMPDEST PUSH1 0x3 SSTORE DUP1 PUSH2 0x3A1 JUMPI PUSH1 0x40 MLOAD PUSH3 0x461BCD PUSH1 0xE5 SHL DUP2 MSTORE PUSH1 0x20 PUSH1 0x4 DUP3 ADD MSTORE PUSH1 0x18 PUSH1 0x24 DUP3 ADD MSTORE PUSH32 0x4661696C656420746F2073656E64207468652066756E64730000000000000000 PUSH1 0x44 DUP3 ADD MSTORE PUSH1 0x64 ADD PUSH2 0x225 JUMP JUMPDEST PUSH1 0x40 MLOAD DUP3 DUP2 MSTORE CALLER SWAP1 PUSH32 0x7084F5476618D8E60B11EF0D7D3F06914655ADB8793E28FF7F018D4C76D505D5 SWAP1 PUSH1 0x20 ADD PUSH1 0x40 MLOAD DUP1 SWAP2 SUB SWAP1 LOG2 POP SWAP3 POP POP POP PUSH1 0x1 PUSH1 0x0 SSTORE SWAP1 JUMP JUMPDEST PUSH2 0x3EB PUSH2 0x69A JUMP JUMPDEST PUSH1 0x0 CALLVALUE GT PUSH2 0x430 JUMPI PUSH1 0x40 MLOAD PUSH3 0x461BCD PUSH1 0xE5 SHL DUP2 MSTORE PUSH1 0x20 PUSH1 0x4 DUP3 ADD MSTORE PUSH1 0x12 PUSH1 0x24 DUP3 ADD MSTORE PUSH18 0x616D6F756E74206D757374206265203E203 PUSH1 0x74 SHL PUSH1 0x44 DUP3 ADD MSTORE PUSH1 0x64 ADD PUSH2 0x225 JUMP JUMPDEST PUSH1 0x3 SLOAD PUSH2 0x43D SWAP1 CALLVALUE PUSH2 0x68E JUMP JUMPDEST PUSH1 0x3 SSTORE PUSH1 0x2 SLOAD ISZERO PUSH2 0x47A JUMPI PUSH2 0x472 PUSH2 0x45E PUSH1 0x2 SLOAD CALLVALUE PUSH1 0x64 PUSH2 0x2C0 SWAP2 SWAP1 PUSH2 0x785 JUMP JUMPDEST PUSH1 0x4 SLOAD PUSH2 0x46C SWAP1 PUSH1 0x64 PUSH2 0x785 JUMP JUMPDEST SWAP1 PUSH2 0x68E JUMP JUMPDEST PUSH1 0x4 SSTORE PUSH2 0x47F JUMP JUMPDEST PUSH1 0x0 DUP1 REVERT JUMPDEST PUSH1 0x40 MLOAD CALLVALUE DUP2 MSTORE PUSH32 0x413750D12F7D0AAE43D7950B99C1034DED0220BBD00B4DD5582085C464614364 SWAP1 PUSH1 0x20 ADD PUSH1 0x40 MLOAD DUP1 SWAP2 SUB SWAP1 LOG1 JUMP JUMPDEST PUSH2 0x4BC PUSH2 0x69A JUMP JUMPDEST PUSH2 0x4C6 PUSH1 0x0 PUSH2 0x6F4 JUMP JUMPDEST JUMP JUMPDEST PUSH1 0x2 PUSH1 0x0 SLOAD EQ ISZERO PUSH2 0x51B JUMPI PUSH1 0x40 MLOAD PUSH3 0x461BCD PUSH1 0xE5 SHL DUP2 MSTORE PUSH1 0x20 PUSH1 0x4 DUP3 ADD MSTORE PUSH1 0x1F PUSH1 0x24 DUP3 ADD MSTORE PUSH32 0x5265656E7472616E637947756172643A207265656E7472616E742063616C6C00 PUSH1 0x44 DUP3 ADD MSTORE PUSH1 0x64 ADD PUSH2 0x225 JUMP JUMPDEST PUSH1 0x2 PUSH1 0x0 SSTORE CALLVALUE PUSH2 0x562 JUMPI PUSH1 0x40 MLOAD PUSH3 0x461BCD PUSH1 0xE5 SHL DUP2 MSTORE PUSH1 0x20 PUSH1 0x4 DUP3 ADD MSTORE PUSH1 0x12 PUSH1 0x24 DUP3 ADD MSTORE PUSH18 0x616D6F756E74206D757374206265203E203 PUSH1 0x74 SHL PUSH1 0x44 DUP3 ADD MSTORE PUSH1 0x64 ADD PUSH2 0x225 JUMP JUMPDEST CALLER PUSH1 0x0 SWAP1 DUP2 MSTORE PUSH1 0x5 PUSH1 0x20 MSTORE PUSH1 0x40 SWAP1 KECCAK256 SLOAD PUSH2 0x57C SWAP1 CALLVALUE PUSH2 0x68E JUMP JUMPDEST CALLER PUSH1 0x0 SWAP1 DUP2 MSTORE PUSH1 0x5 PUSH1 0x20 SWAP1 DUP2 MSTORE PUSH1 0x40 DUP1 DUP4 KECCAK256 SWAP4 SWAP1 SWAP4 SSTORE PUSH1 0x4 SLOAD PUSH1 0x6 SWAP1 SWAP2 MSTORE SWAP2 SWAP1 KECCAK256 SSTORE PUSH1 0x2 SLOAD PUSH2 0x5AB SWAP1 CALLVALUE PUSH2 0x68E JUMP JUMPDEST PUSH1 0x2 SSTORE PUSH1 0x40 MLOAD CALLVALUE DUP2 MSTORE CALLER SWAP1 PUSH32 0x2DA466A7B24304F47E87FA2E1E5A81B9831CE54FEC19055CE277CA2F39BA42C4 SWAP1 PUSH1 0x20 ADD PUSH1 0x40 MLOAD DUP1 SWAP2 SUB SWAP1 LOG2 PUSH1 0x1 PUSH1 0x0 SSTORE JUMP JUMPDEST PUSH2 0x5F2 PUSH2 0x69A JUMP JUMPDEST PUSH1 0x1 PUSH1 0x1 PUSH1 0xA0 SHL SUB DUP2 AND PUSH2 0x657 JUMPI PUSH1 0x40 MLOAD PUSH3 0x461BCD PUSH1 0xE5 SHL DUP2 MSTORE PUSH1 0x20 PUSH1 0x4 DUP3 ADD MSTORE PUSH1 0x26 PUSH1 0x24 DUP3 ADD MSTORE PUSH32 0x4F776E61626C653A206E6577206F776E657220697320746865207A65726F2061 PUSH1 0x44 DUP3 ADD MSTORE PUSH6 0x646472657373 PUSH1 0xD0 SHL PUSH1 0x64 DUP3 ADD MSTORE PUSH1 0x84 ADD PUSH2 0x225 JUMP JUMPDEST PUSH2 0x660 DUP2 PUSH2 0x6F4 JUMP JUMPDEST POP JUMP JUMPDEST PUSH1 0x0 PUSH2 0x66F DUP3 DUP5 PUSH2 0x7A4 JUMP JUMPDEST SWAP4 SWAP3 POP POP POP JUMP JUMPDEST PUSH1 0x0 PUSH2 0x66F DUP3 DUP5 PUSH2 0x785 JUMP JUMPDEST PUSH1 0x0 PUSH2 0x66F DUP3 DUP5 PUSH2 0x7BB JUMP JUMPDEST PUSH1 0x0 PUSH2 0x66F DUP3 DUP5 PUSH2 0x7DD JUMP JUMPDEST PUSH1 0x1 SLOAD PUSH1 0x1 PUSH1 0x1 PUSH1 0xA0 SHL SUB AND CALLER EQ PUSH2 0x4C6 JUMPI PUSH1 0x40 MLOAD PUSH3 0x461BCD PUSH1 0xE5 SHL DUP2 MSTORE PUSH1 0x20 PUSH1 0x4 DUP3 ADD DUP2 SWAP1 MSTORE PUSH1 0x24 DUP3 ADD MSTORE PUSH32 0x4F776E61626C653A2063616C6C6572206973206E6F7420746865206F776E6572 PUSH1 0x44 DUP3 ADD MSTORE PUSH1 0x64 ADD PUSH2 0x225 JUMP JUMPDEST PUSH1 0x1 DUP1 SLOAD PUSH1 0x1 PUSH1 0x1 PUSH1 0xA0 SHL SUB DUP4 DUP2 AND PUSH1 0x1 PUSH1 0x1 PUSH1 0xA0 SHL SUB NOT DUP4 AND DUP2 OR SWAP1 SWAP4 SSTORE PUSH1 0x40 MLOAD SWAP2 AND SWAP2 SWAP1 DUP3 SWAP1 PUSH32 0x8BE0079C531659141344CD1FD0A4F28419497F9722A3DAAFE3B4186F6B6457E0 SWAP1 PUSH1 0x0 SWAP1 LOG3 POP POP JUMP JUMPDEST PUSH1 0x0 PUSH1 0x20 DUP3 DUP5 SUB SLT ISZERO PUSH2 0x758 JUMPI PUSH1 0x0 DUP1 REVERT JUMPDEST DUP2 CALLDATALOAD PUSH1 0x1 PUSH1 0x1 PUSH1 0xA0 SHL SUB DUP2 AND DUP2 EQ PUSH2 0x66F JUMPI PUSH1 0x0 DUP1 REVERT JUMPDEST PUSH4 0x4E487B71 PUSH1 0xE0 SHL PUSH1 0x0 MSTORE PUSH1 0x11 PUSH1 0x4 MSTORE PUSH1 0x24 PUSH1 0x0 REVERT JUMPDEST PUSH1 0x0 DUP2 PUSH1 0x0 NOT DIV DUP4 GT DUP3 ISZERO ISZERO AND ISZERO PUSH2 0x79F JUMPI PUSH2 0x79F PUSH2 0x76F JUMP JUMPDEST POP MUL SWAP1 JUMP JUMPDEST PUSH1 0x0 DUP3 DUP3 LT ISZERO PUSH2 0x7B6 JUMPI PUSH2 0x7B6 PUSH2 0x76F JUMP JUMPDEST POP SUB SWAP1 JUMP JUMPDEST PUSH1 0x0 DUP3 PUSH2 0x7D8 JUMPI PUSH4 0x4E487B71 PUSH1 0xE0 SHL PUSH1 0x0 MSTORE PUSH1 0x12 PUSH1 0x4 MSTORE PUSH1 0x24 PUSH1 0x0 REVERT JUMPDEST POP DIV SWAP1 JUMP JUMPDEST PUSH1 0x0 DUP3 NOT DUP3 GT ISZERO PUSH2 0x7F0 JUMPI PUSH2 0x7F0 PUSH2 0x76F JUMP JUMPDEST POP ADD SWAP1 JUMP INVALID LOG2 PUSH5 0x6970667358 0x22 SLT KECCAK256 0xEE 0x4D 0xFB 0x1F PUSH6 0x9843733A1D95 0xA8 DUP4 0xAC 0xA6 PUSH13 0x12BCC58D66CEC50A00F06BF8E8 0xBA 0xC2 SWAP4 PUSH5 0x736F6C6343 STOP ADDMOD MULMOD STOP CALLER "},"methodIdentifiers":{"deposit()":"d0e30db0","depositReward()":"5ec2dc8d","deposits(address)":"fc7e286d","owner()":"8da5cb5b","renounceOwnership()":"715018a6","rewardPerDeposit()":"ea4e2fd2","rewards(address)":"0700037d","totalDeposited()":"ff50abdc","totalDepositedRewards()":"6d27f317","transferOwnership(address)":"f2fde38b","withdraw()":"3ccfd60b"}}}}}