{
  "_format": "hh-sol-artifact-1",
  "contractName": "ETHPool",
  "sourceName": "contracts/ETHPool.sol",
  "abi": [
    {
      "inputs": [],
      "stateMutability": "nonpayable",
      "type": "constructor"
    },
    {
      "anonymous": false,
      "inputs": [
        {
          "indexed": true,
          "internalType": "address",
          "name": "user",
          "type": "address"
        },
        {
          "indexed": false,
          "internalType": "uint256",
          "name": "amount",
          "type": "uint256"
        }
      ],
      "name": "Deposited",
      "type": "event"
    },
    {
      "anonymous": false,
      "inputs": [
        {
          "indexed": true,
          "internalType": "address",
          "name": "previousOwner",
          "type": "address"
        },
        {
          "indexed": true,
          "internalType": "address",
          "name": "newOwner",
          "type": "address"
        }
      ],
      "name": "OwnershipTransferred",
      "type": "event"
    },
    {
      "anonymous": false,
      "inputs": [
        {
          "indexed": false,
          "internalType": "uint256",
          "name": "amount",
          "type": "uint256"
        }
      ],
      "name": "RewardDeposit",
      "type": "event"
    },
    {
      "anonymous": false,
      "inputs": [
        {
          "indexed": true,
          "internalType": "address",
          "name": "user",
          "type": "address"
        },
        {
          "indexed": false,
          "internalType": "uint256",
          "name": "amount",
          "type": "uint256"
        }
      ],
      "name": "Withdrawn",
      "type": "event"
    },
    {
      "stateMutability": "payable",
      "type": "fallback"
    },
    {
      "inputs": [],
      "name": "deposit",
      "outputs": [],
      "stateMutability": "payable",
      "type": "function"
    },
    {
      "inputs": [],
      "name": "depositReward",
      "outputs": [],
      "stateMutability": "payable",
      "type": "function"
    },
    {
      "inputs": [
        {
          "internalType": "address",
          "name": "",
          "type": "address"
        }
      ],
      "name": "deposits",
      "outputs": [
        {
          "internalType": "uint256",
          "name": "",
          "type": "uint256"
        }
      ],
      "stateMutability": "view",
      "type": "function"
    },
    {
      "inputs": [],
      "name": "owner",
      "outputs": [
        {
          "internalType": "address",
          "name": "",
          "type": "address"
        }
      ],
      "stateMutability": "view",
      "type": "function"
    },
    {
      "inputs": [],
      "name": "renounceOwnership",
      "outputs": [],
      "stateMutability": "nonpayable",
      "type": "function"
    },
    {
      "inputs": [],
      "name": "rewardPerDeposit",
      "outputs": [
        {
          "internalType": "uint256",
          "name": "",
          "type": "uint256"
        }
      ],
      "stateMutability": "view",
      "type": "function"
    },
    {
      "inputs": [
        {
          "internalType": "address",
          "name": "",
          "type": "address"
        }
      ],
      "name": "rewards",
      "outputs": [
        {
          "internalType": "uint256",
          "name": "",
          "type": "uint256"
        }
      ],
      "stateMutability": "view",
      "type": "function"
    },
    {
      "inputs": [],
      "name": "totalDeposited",
      "outputs": [
        {
          "internalType": "uint256",
          "name": "",
          "type": "uint256"
        }
      ],
      "stateMutability": "view",
      "type": "function"
    },
    {
      "inputs": [],
      "name": "totalDepositedRewards",
      "outputs": [
        {
          "internalType": "uint256",
          "name": "",
          "type": "uint256"
        }
      ],
      "stateMutability": "view",
      "type": "function"
    },
    {
      "inputs": [
        {
          "internalType": "address",
          "name": "newOwner",
          "type": "address"
        }
      ],
      "name": "transferOwnership",
      "outputs": [],
      "stateMutability": "nonpayable",
      "type": "function"
    },
    {
      "inputs": [],
      "name": "withdraw",
      "outputs": [
        {
          "internalType": "uint256",
          "name": "",
          "type": "uint256"
        }
      ],
      "stateMutability": "nonpayable",
      "type": "function"
    },
    {
      "stateMutability": "payable",
      "type": "receive"
    }
  ],
  "bytecode": "0x608060405234801561001057600080fd5b50600160005561001f33610033565b600060038190556002819055600455610085565b600180546001600160a01b038381166001600160a01b0319831681179093556040519116919082907f8be0079c531659141344cd1fd0a4f28419497f9722a3daafe3b4186f6b6457e090600090a35050565b61082b806100946000396000f3fe60806040526004361061009a5760003560e01c80638da5cb5b116100615780638da5cb5b1461012b578063d0e30db014610153578063ea4e2fd21461015b578063f2fde38b14610171578063fc7e286d14610191578063ff50abdc146101be57005b80630700037d146100a35780633ccfd60b146100e35780635ec2dc8d146100f85780636d27f31714610100578063715018a61461011657005b366100a157005b005b3480156100af57600080fd5b506100d06100be366004610746565b60066020526000908152604090205481565b6040519081526020015b60405180910390f35b3480156100ef57600080fd5b506100d06101d4565b6100a16103e3565b34801561010c57600080fd5b506100d060035481565b34801561012257600080fd5b506100a16104b4565b34801561013757600080fd5b506001546040516001600160a01b0390911681526020016100da565b6100a16104c8565b34801561016757600080fd5b506100d060045481565b34801561017d57600080fd5b506100a161018c366004610746565b6105ea565b34801561019d57600080fd5b506100d06101ac366004610746565b60056020526000908152604090205481565b3480156101ca57600080fd5b506100d060025481565b60006002600054141561022e5760405162461bcd60e51b815260206004820152601f60248201527f5265656e7472616e637947756172643a207265656e7472616e742063616c6c0060448201526064015b60405180910390fd5b60026000908155338152600560205260409020546102835760405162461bcd60e51b81526020600482015260126024820152714e6f7420656e6f7567682062616c616e636560701b6044820152606401610225565b3360009081526005602090815260408083205460069092528220546004549192916102c6916064916102c0916102b99190610663565b8590610676565b90610682565b6002549091506102d69083610663565b60025560006102e5838361068e565b604051909150600090339083908381818185875af1925050503d806000811461032a576040519150601f19603f3d011682016040523d82523d6000602084013e61032f565b606091505b5050336000908152600560205260408120556003549091506103519084610663565b600355806103a15760405162461bcd60e51b815260206004820152601860248201527f4661696c656420746f2073656e64207468652066756e647300000000000000006044820152606401610225565b60405182815233907f7084f5476618d8e60b11ef0d7d3f06914655adb8793e28ff7f018d4c76d505d59060200160405180910390a25092505050600160005590565b6103eb61069a565b600034116104305760405162461bcd60e51b81526020600482015260126024820152710616d6f756e74206d757374206265203e20360741b6044820152606401610225565b60035461043d903461068e565b6003556002541561047a5761047261045e6002543460646102c09190610785565b60045461046c906064610785565b9061068e565b60045561047f565b600080fd5b6040513481527f413750d12f7d0aae43d7950b99c1034ded0220bbd00b4dd5582085c4646143649060200160405180910390a1565b6104bc61069a565b6104c660006106f4565b565b6002600054141561051b5760405162461bcd60e51b815260206004820152601f60248201527f5265656e7472616e637947756172643a207265656e7472616e742063616c6c006044820152606401610225565b6002600055346105625760405162461bcd60e51b81526020600482015260126024820152710616d6f756e74206d757374206265203e20360741b6044820152606401610225565b3360009081526005602052604090205461057c903461068e565b336000908152600560209081526040808320939093556004546006909152919020556002546105ab903461068e565b60025560405134815233907f2da466a7b24304f47e87fa2e1e5a81b9831ce54fec19055ce277ca2f39ba42c49060200160405180910390a26001600055565b6105f261069a565b6001600160a01b0381166106575760405162461bcd60e51b815260206004820152602660248201527f4f776e61626c653a206e6577206f776e657220697320746865207a65726f206160448201526564647265737360d01b6064820152608401610225565b610660816106f4565b50565b600061066f82846107a4565b9392505050565b600061066f8284610785565b600061066f82846107bb565b600061066f82846107dd565b6001546001600160a01b031633146104c65760405162461bcd60e51b815260206004820181905260248201527f4f776e61626c653a2063616c6c6572206973206e6f7420746865206f776e65726044820152606401610225565b600180546001600160a01b038381166001600160a01b0319831681179093556040519116919082907f8be0079c531659141344cd1fd0a4f28419497f9722a3daafe3b4186f6b6457e090600090a35050565b60006020828403121561075857600080fd5b81356001600160a01b038116811461066f57600080fd5b634e487b7160e01b600052601160045260246000fd5b600081600019048311821515161561079f5761079f61076f565b500290565b6000828210156107b6576107b661076f565b500390565b6000826107d857634e487b7160e01b600052601260045260246000fd5b500490565b600082198211156107f0576107f061076f565b50019056fea2646970667358221220ee4dfb1f659843733a1d95a883aca66c12bcc58d66cec50a00f06bf8e8bac29364736f6c63430008090033",
  "linkReferences": {},
  "deployedLinkReferences": {}
}