{
  "_format": "hh-sol-artifact-1",
  "contractName": "ETHPool",
  "sourceName": "contracts/ETHPool.sol",
  "abi": [
    {
      "inputs": [],
      "stateMutability": "nonpayable",
      "type": "constructor"
    },
    {
      "anonymous": false,
      "inputs": [
        {
          "indexed": true,
          "internalType": "address",
          "name": "user",
          "type": "address"
        },
        {
          "indexed": false,
          "internalType": "uint256",
          "name": "amount",
          "type": "uint256"
        }
      ],
      "name": "Deposited",
      "type": "event"
    },
    {
      "anonymous": false,
      "inputs": [
        {
          "indexed": true,
          "internalType": "address",
          "name": "previousOwner",
          "type": "address"
        },
        {
          "indexed": true,
          "internalType": "address",
          "name": "newOwner",
          "type": "address"
        }
      ],
      "name": "OwnershipTransferred",
      "type": "event"
    },
    {
      "anonymous": false,
      "inputs": [
        {
          "indexed": false,
          "internalType": "uint256",
          "name": "amount",
          "type": "uint256"
        }
      ],
      "name": "RewardDeposit",
      "type": "event"
    },
    {
      "anonymous": false,
      "inputs": [
        {
          "indexed": true,
          "internalType": "address",
          "name": "user",
          "type": "address"
        },
        {
          "indexed": false,
          "internalType": "uint256",
          "name": "amount",
          "type": "uint256"
        }
      ],
      "name": "Withdrawn",
      "type": "event"
    },
    {
      "stateMutability": "payable",
      "type": "fallback"
    },
    {
      "inputs": [],
      "name": "deposit",
      "outputs": [],
      "stateMutability": "payable",
      "type": "function"
    },
    {
      "inputs": [],
      "name": "depositReward",
      "outputs": [],
      "stateMutability": "payable",
      "type": "function"
    },
    {
      "inputs": [
        {
          "internalType": "address",
          "name": "",
          "type": "address"
        }
      ],
      "name": "deposits",
      "outputs": [
        {
          "internalType": "uint256",
          "name": "",
          "type": "uint256"
        }
      ],
      "stateMutability": "view",
      "type": "function"
    },
    {
      "inputs": [],
      "name": "owner",
      "outputs": [
        {
          "internalType": "address",
          "name": "",
          "type": "address"
        }
      ],
      "stateMutability": "view",
      "type": "function"
    },
    {
      "inputs": [],
      "name": "renounceOwnership",
      "outputs": [],
      "stateMutability": "nonpayable",
      "type": "function"
    },
    {
      "inputs": [],
      "name": "rewardPerDeposit",
      "outputs": [
        {
          "internalType": "uint256",
          "name": "",
          "type": "uint256"
        }
      ],
      "stateMutability": "view",
      "type": "function"
    },
    {
      "inputs": [
        {
          "internalType": "address",
          "name": "",
          "type": "address"
        }
      ],
      "name": "rewards",
      "outputs": [
        {
          "internalType": "uint256",
          "name": "",
          "type": "uint256"
        }
      ],
      "stateMutability": "view",
      "type": "function"
    },
    {
      "inputs": [],
      "name": "totalDeposited",
      "outputs": [
        {
          "internalType": "uint256",
          "name": "",
          "type": "uint256"
        }
      ],
      "stateMutability": "view",
      "type": "function"
    },
    {
      "inputs": [],
      "name": "totalDepositedRewards",
      "outputs": [
        {
          "internalType": "uint256",
          "name": "",
          "type": "uint256"
        }
      ],
      "stateMutability": "view",
      "type": "function"
    },
    {
      "inputs": [
        {
          "internalType": "address",
          "name": "newOwner",
          "type": "address"
        }
      ],
      "name": "transferOwnership",
      "outputs": [],
      "stateMutability": "nonpayable",
      "type": "function"
    },
    {
      "inputs": [],
      "name": "withdraw",
      "outputs": [
        {
          "internalType": "uint256",
          "name": "",
          "type": "uint256"
        }
      ],
      "stateMutability": "nonpayable",
      "type": "function"
    },
    {
      "stateMutability": "payable",
      "type": "receive"
    }
  ],
  "bytecode": "0x608060405234801561001057600080fd5b50600160005561001f33610033565b600060038190556002819055600455610085565b600180546001600160a01b038381166001600160a01b0319831681179093556040519116919082907f8be0079c531659141344cd1fd0a4f28419497f9722a3daafe3b4186f6b6457e090600090a35050565b610832806100946000396000f3fe60806040526004361061009a5760003560e01c80638da5cb5b116100615780638da5cb5b1461012b578063d0e30db014610153578063ea4e2fd21461015b578063f2fde38b14610171578063fc7e286d14610191578063ff50abdc146101be57005b80630700037d146100a35780633ccfd60b146100e35780635ec2dc8d146100f85780636d27f31714610100578063715018a61461011657005b366100a157005b005b3480156100af57600080fd5b506100d06100be366004610716565b60066020526000908152604090205481565b6040519081526020015b60405180910390f35b3480156100ef57600080fd5b506100d06101d4565b6100a16103b6565b34801561010c57600080fd5b506100d060035481565b34801561012257600080fd5b506100a16104b4565b34801561013757600080fd5b506001546040516001600160a01b0390911681526020016100da565b6100a16104c8565b34801561016757600080fd5b506100d060045481565b34801561017d57600080fd5b506100a161018c366004610716565b6105ba565b34801561019d57600080fd5b506100d06101ac366004610716565b60056020526000908152604090205481565b3480156101ca57600080fd5b506100d060025481565b6000600260005414156102025760405162461bcd60e51b81526004016101f99061073f565b60405180910390fd5b60026000908155338152600560205260409020546102575760405162461bcd60e51b81526020600482015260126024820152714e6f7420656e6f7567682062616c616e636560701b60448201526064016101f9565b33600090815260056020908152604080832054600690925282205460045491929161029a916064916102949161028d9190610633565b8590610646565b90610652565b6002549091506102aa9083610633565b60025560006102b9838361065e565b604051909150600090339083908381818185875af1925050503d80600081146102fe576040519150601f19603f3d011682016040523d82523d6000602084013e610303565b606091505b5050336000908152600560205260408120559050806103645760405162461bcd60e51b815260206004820152601860248201527f4661696c656420746f2073656e64207468652066756e6473000000000000000060448201526064016101f9565b6003546103719084610633565b60035560405182815233907f7084f5476618d8e60b11ef0d7d3f06914655adb8793e28ff7f018d4c76d505d59060200160405180910390a25092505050600160005590565b600260005414156103d95760405162461bcd60e51b81526004016101f99061073f565b60026000556103e661066a565b6000341161042b5760405162461bcd60e51b81526020600482015260126024820152710616d6f756e74206d757374206265203e20360741b60448201526064016101f9565b600354610438903461065e565b600355600254156104755761046d610459600254346064610294919061078c565b60045461046790606461078c565b9061065e565b60045561047a565b600080fd5b6040513481527f413750d12f7d0aae43d7950b99c1034ded0220bbd00b4dd5582085c4646143649060200160405180910390a16001600055565b6104bc61066a565b6104c660006106c4565b565b600260005414156104eb5760405162461bcd60e51b81526004016101f99061073f565b6002600055346105325760405162461bcd60e51b81526020600482015260126024820152710616d6f756e74206d757374206265203e20360741b60448201526064016101f9565b3360009081526005602052604090205461054c903461065e565b3360009081526005602090815260408083209390935560045460069091529190205560025461057b903461065e565b60025560405134815233907f2da466a7b24304f47e87fa2e1e5a81b9831ce54fec19055ce277ca2f39ba42c49060200160405180910390a26001600055565b6105c261066a565b6001600160a01b0381166106275760405162461bcd60e51b815260206004820152602660248201527f4f776e61626c653a206e6577206f776e657220697320746865207a65726f206160448201526564647265737360d01b60648201526084016101f9565b610630816106c4565b50565b600061063f82846107ab565b9392505050565b600061063f828461078c565b600061063f82846107c2565b600061063f82846107e4565b6001546001600160a01b031633146104c65760405162461bcd60e51b815260206004820181905260248201527f4f776e61626c653a2063616c6c6572206973206e6f7420746865206f776e657260448201526064016101f9565b600180546001600160a01b038381166001600160a01b0319831681179093556040519116919082907f8be0079c531659141344cd1fd0a4f28419497f9722a3daafe3b4186f6b6457e090600090a35050565b60006020828403121561072857600080fd5b81356001600160a01b038116811461063f57600080fd5b6020808252601f908201527f5265656e7472616e637947756172643a207265656e7472616e742063616c6c00604082015260600190565b634e487b7160e01b600052601160045260246000fd5b60008160001904831182151516156107a6576107a6610776565b500290565b6000828210156107bd576107bd610776565b500390565b6000826107df57634e487b7160e01b600052601260045260246000fd5b500490565b600082198211156107f7576107f7610776565b50019056fea2646970667358221220903dcf9e566e7008e4abf99321c14261bece3ff936eaf9cb4dbeed02a074fad364736f6c63430008090033",
  "linkReferences": {},
  "deployedLinkReferences": {}
}